:020000040000FA
:10000000021111A2029290A2029280AD40AC3F7FF9
:100010000A7E0012002E121947A202B3227597A57C
:1000200022222202107DE4F5A922220214538E41DD
:100030008F428C438D4412166F1218DCE54424BFA6
:100040009000E8F0E54334FF9000E7F09000E3E52E
:1000500041F0A3E542F043910422220211A01219BB
:100060007B53D87853DAFE121950E4900087F022BF
:10007000D2DE220214A6121805C290C296C280E4F3
:10008000FBFD7F1012193E12053474A4F0D2AF129A
:100090001712D2969000ECE004F070069000EBE0AE
:1000A00004F09000EBE0B427E9A3E0B410E4C296BA
:1000B00012001D3003091217288E228F2380067527
:1000C0002201752300E5237004E522640170469047
:1000D00000DEE0700612171302029E9000EBE4753A
:1000E000F001120809FED3E5F09410EE94274002C7
:1000F000D296D39000ECE094309000EBE0947550F1
:100100000302029EE4F0A3F09000DEF0900099F06C
:10011000C29602029E1217129000DEE014602A14AA
:1001200070030202621470030202181470030202C8
:10013000352404600302029EE52364AA60030202E0
:100140009E9000DE04F002029EE523900099F0905C
:1001500000DE7402F0E5231209310201A0017FA143
:10016000018BA501A9A601BDA701C6A801DDA901B2
:10017000CCB001D5B1019DC0029EFF0000020C125F
:100180000521E490008AF07FA1806512055190005E
:10019000EA7408F0E4F52575240902029E1205515F
:1001A000E4F52575240202029E90008A7401F07F16
:1001B000A612162990007974A6F002029E12053448
:1001C00074A4F002029E9000EA7408F09000DE74BD
:1001D00003F002029E7FB112056502029E12052104
:1001E00090008AE09000E9F090008A7401F07FA905
:1001F0001205657D307C757F017E001217DC0202DE
:100200009E12056E900079EFF0E48005E49000996D
:10021000F09000DEF002029EE4F525E523F524D3FC
:10022000E524940074809480403012005E9000DEDB
:100230007404F0806974032525F582E43400F583A5
:10024000E523F00525E525B52402800EC3E52594B8
:10025000707480948040477524709000DE7402F0C2
:10026000803CE523645570369000DEF0C2039000B8
:1002700099E02460601B24FC601224FE600E146070
:100280000B24F76010146004241070127FA0121861
:10029000C3D2038009900004E0049000EAF09000CB
:1002A00099E012093102C7A1033AA4037CA5033ADD
:1002B000A6044CA802C7A90481B004EAB10423C073
:1002C0000447FF000000B012171A603F7DC87C0091
:1002D000120542900099E02457600E2408701F1206
:1002E000056E7FA312154780159000E9E090008A03
:1002F000F0900079E0FF1216297FAB12057FE490A1
:100300000086F043DA01D2030200B012190B50202C
:100310007DE87C03120542900099E02457600C248C
:100320000860030200B07FA20204DC7FAA0204DCA2
:1003300012057740030200B0802C12171A601F903C
:100340000099E0245A600F240260030204F47FA4A1
:100350001215470204F47FA612057F0204F4120569
:100360007740030200B01216EFC006C0071216FE57
:100370009200D007D006120B6D0200B09000DEE0B4
:1003800060030200B01217217003020416240560F6
:10039000030200B012055B900005E0FFA3E09000AF
:1003A0008BCFF0A3EFF0900007E0FFA3E090008D6B
:1003B000CFF0A3EFF0900003E0FFA3E090008FCF19
:1003C000F0A3EFF07B017A00798B901A77E493FC2D
:1003D000740193FD901A79E493F52E12170A8E2F6B
:1003E000F530901A7CE493F53112170A8E32F5330A
:1003F000901A7FE493F53412170A8E35F536901A69
:1004000082E493F537A3E493F538753900753A091A
:10041000120EED0200B09000EAE07063C2807FA08F
:100420000204DC9000DEE060030200B0900003E014
:10043000FCA3E0FD7F017E001217DCD29612194763
:10044000C2967FA00204DC7F040204DC9000DEE0A0
:1004500060030200B0121721601924056003020036
:10046000B012055B900003E0FF7C007D0412139046
:100470000200B09000EAE07006C2807FA0805D803C
:10048000619000DEE060030200B012172160432497
:100490000560030200B09000EAE014F012005E7EF6
:1004A000007F05C006C007900003E0FB25E0FFE4E5
:1004B00033FE74052FF58274003EAD82FCEB25E01F
:1004C000FFE52424FEC39FFBD007D006120FD802FD
:1004D00000B09000EAE0700AC2807FA01218A90262
:1004E00000B0E4900087F00200B012171A60107F8D
:1004F000B1121225E4900086F043DA010200B07ECA
:10050000007FED1215E040030200B01216EFC006A6
:10051000C0071216FE9200D007D006120D3C020052
:10052000B07D327C007F017E001217DCD29612195A
:1005300047C29622E490008AF07FA4121629900008
:1005400079227F017E001217DCD296121947C296DB
:100550002212005E9000DE7404F0229000EAE014A3
:10056000F012005E22121629900079EFF02290001E
:1005700079E0FF121629227E007FED1215E022900D
:100580000086E0547FFD121595228F29E4F536EFA1
:1005900025E025E02468F8E6701EEF25E025E0243C
:1005A00069F876087E007F707D007B017A00790310
:1005B000120957E490007AF0AB2CAA2DA92EC001A5
:1005C00012099D2466F9E7540F120AF01209BCD0F3
:1005D000011214F9503D12099D2466F9E7540FFFEA
:1005E000120AF0120AC6300101B34031EF700A90CE
:1005F0000077E52AF0A3E52BF012099D120AFC24EE
:1006000001FFEFFEEC54F04EFEEDFF12099D120AC1
:10061000D0800A12099D2466F874F056F6AB2CAA15
:100620002DA92EC00112099D120B08120A07120BE8
:10063000141209BCD0011214F9505212099D120B68
:1006400008120A07FF120B145408FE120AC83001E0
:1006500001B34043EF700A900088E52AF0A3E52B30
:10066000F012099D1209F82401FFE433FEEFC4F8EB
:10067000540FC868FFEEC454F048FEED540FFDEC73
:100680004EFEED4FFF12099D120AD0800A12099DFD
:100690002467F8740F56F612099D120AFCFB700FBE
:1006A000120A00700A1209832469F8E4F6C32212C0
:1006B000099D2468F8E53514667003753601C3E5B5
:1006C0003195366B7020D29012099D2466F874F033
:1006D00056F6740F085612099C2468F80612099DF4
:1006E0002469F816804B12099D1209F8FFC3E534FE
:1006F00095366F703CD29012099D2466F8EC54F048
:10070000FEED540FA6060812099C2468F80612098B
:100710009D2469F81612099D120A0EE0FF12099D28
:100720002469F8E6FEF87401088002C333D8FC4F50
:10073000F012099D2469F8E6701712099D120A0E3D
:10074000120A82FF12184FEFF012099D2469F87601
:100750000812099D2468F8E6C39535403112190046
:100760005005E4900085F0120A7F60181219507D40
:10077000207C037F017E001217B3120B20A3E52912
:10078000F04480F01209832469F8E4F6D322C322EE
:10079000BB010689828A83F0225002F722BBFE0148
:1007A000F322EF8DF0A4A8F0CF8CF0A428CE8DF02A
:1007B000A42EFE22BC000BBE0029EF8DF084FFADFD
:1007C000F022E4CCF875F008EF2FFFEE33FEEC33A7
:1007D000FCEE9DEC984005FCEE9DFE0FD5F0E9E4A3
:1007E000CEFD22EDF8F5F0EE8420D21CFEADF075C2
:1007F000F008EF2FFFED33FD4007985006D5F0F2DB
:1008000022C398FD0FD5F0EA22C5F0F8A3E028F046
:10081000C5F0F8E582158270021583E038F022BB3E
:100820000110E58229F582E5833AF583E0F5F0A32E
:10083000E0225009E92582F886F008E622BBFE0A8C
:10084000E92582F8E2F5F008E222E5832AF583E95A
:1008500093F5F0A3E9932275F008758200EF2FFF5E
:10086000EE33FECD33CDCC33CCC58233C5829BED88
:100870009AEC99E58298400CF582EE9BFEED9AFD8C
:10088000EC99FC0FD5F0D6E4CEFBE4CDFAE4CCF93C
:10089000A88222B800C1B90059BA002DEC8BF084AF
:1008A000CFCECDFCE5F0CBF97818EF2FFFEE33FE7D
:1008B000ED33FDEC33FCEB33FB10D703994004EB35
:1008C00099FB0FD8E5E4F9FA227818EF2FFFEE3301
:1008D000FEED33FDEC33FCC933C910D7059BE99A13
:1008E0004007EC9BFCE99AF90FD8E0E4C9FAE4CCA4
:1008F000FB2275F010EF2FFFEE33FEED33FDCC330E
:10090000CCC833C810D7079BEC9AE899400AED9BF6
:10091000FDEC9AFCE899F80FD5F0DAE4CDFBE4CCD5
:10092000FAE4C8F922A42582F582E5F03583F5833F
:1009300022D083D082F8E4937012740193700DA3D7
:10094000A393F8740193F5828883E4737402936827
:1009500060EFA3A3A380DFEF4E6012EF60010EED06
:10096000BB010B89828A83F0A3DFFCDEFA2289F0C7
:100970005007F709DFFCA9F022BBFEFCF309DFFCFE
:10098000A9F022C290E52925E025E02466F8E4F6E6
:1009900008F6E52925E025E02468F8E4F6E52925B0
:1009A000E025E022F583E493FF5408FE131313546B
:1009B0001F24FF9202AB29AA2AA92BEF540775F036
:1009C00002A4F58285F0832225E025E02466F8E480
:1009D000F608F6E52825E025E02468F8E4F6E528A1
:1009E00025E025E022C454F0245CF582E4341CF5B3
:1009F00083E493FE740193222466F8E6FC08E6FD86
:100A0000ECC4F854F0C8EDC4540F48540F222468C5
:100A1000F8E614131313541F2403F582E43400F58D
:100A20008322E529252BF582E43528F583E022A2EF
:100A300000E433C433333354804526FFE527900068
:100A400074CFF0A3EFF0E490007BF022C454F024C4
:100A50005FF582E4341CF583E493FC74019322E691
:100A6000FC08E6FDECC4540F2401FFEFC454F0FE73
:100A700022E52E25E0248BF582E43400F5832290D4
:100A80000085E0FF90007AE06F22C454F02461F505
:100A900082E4341CF583E49322C454F02464F58288
:100AA000E4341CF583E49322C454F02467F582E413
:100AB000341CF583E49322C454F0246BF582E434AF
:100AC0001CF583E493225408131313541F24FF22AC
:100AD0002466F8A60608A60722540FC3940474805F
:100AE000948022900073E0FFC394707480948022FD
:100AF0002530F582E4352FF583E493222466F8E669
:100B0000FC08E6FDEC540F222466F9E7C4F854F023
:100B1000C809E7222533F582E43532F583E49322D0
:100B200090007AE0900085F053DAFE2225E0247DE3
:100B3000F582E43400F58322A200920185262A85FD
:100B4000272B22C454F02462F582E4341C22C454BE
:100B5000F02465F582E4341C22C3E52894107480E7
:100B60009480222466F8E6FEEEC4540F228E268F6F
:100B700027E4F528C3E5279464E52694005019E49A
:100B8000F528120B59500EE5281209C82469F8E41B
:100B9000F6052880EDC2902290008AE014700302CE
:100BA0000C5D046003020D3B7866E6C4540FF970D7
:100BB00065D3E5279494E52694115003020D3B304C
:100BC0000003020D3BE9120A68E6540FFC08E6FD3B
:100BD000EC4E18F6ED08F618120A5FEC540F4E189A
:100BE000F6ED08F6900001E526F0A3E527F0AE2625
:100BF000FF7C007D1F1207B490008BEEF0A3EFF096
:100C00007C007D031207A2A3EEF0A3EFF0A3E5267C
:100C1000F0A3E527F0227866E6C4540F640260036F
:100C2000020D3B120B38752C01752D00752E8B9023
:100C30001C6293FE7401938E2FF530901C64E49334
:100C4000F531A31209F18E32F533901C67E493F568
:100C500034901C6BE493F535E4FF02058AE4F52833
:100C6000120B594003020D3B1209DE120B63FFE524
:100C700028120A8AF9EFC399506EE528120A4CF53A
:100C8000828C832FF582E43583F583E493FF120A87
:100C9000C6300001B35003020D36E528C454F024D9
:100CA0005CF582E4341C120A56F5828C83EF5407FB
:100CB00075F002120925120A58FDAF27AE2612154B
:100CC00003E528501925E025E02466F8120A5FECB8
:100CD000540F4EFEEDFF1209DE120AD080581209A1
:100CE000C82469F8E4F6804E1209DE120B636970BD
:100CF00045120B38E5281209E5AA06752CFF8A2D46
:100D0000F52EE528120B431209EF8E2FF530E5285A
:100D1000120A99F531E528120B4E1209EF8E32F5C1
:100D200033E528120AA8F534E528120AB7F535AFDD
:100D30002812058A40050528020C60228E268F277E
:100D4000C3E5279464E52694005003020EDB90006F
:100D500087E024FE6025147003020DE22403600383
:100D6000020EE0C290AF27AE261218B64003020E64
:100D7000E0120A2F9000877402F022120EE1503127
:100D800090007BE0120ADC4021D290E4900000F059
:100D9000900073F0C20490007CF090007AF0900014
:100DA00003F09000877403F08025E4900087F080C2
:100DB0001E900074E0547FFEA3E0FFD3E5279FE57B
:100DC000269E4005120A2F800690007BE004F090DA
:100DD000007BE0C394E0748094805003020EE00234
:100DE0000EDB90007CE004F090007BE0FFA3E0D3FA
:100DF0009F4003020E897B007A007928AF27AE2638
:100E00001213184026900000E094077480948040EC
:100E100003020EDB900000E0FF120A73E526F0A348
:100E2000E527F08F28900000E004F0300424120A37
:100E3000E34003020EDBA200E433C43333335480B7
:100E4000FEE528C454F04EFE74032F120A1AEEF089
:100E50008034120AE34003020EDB74032F120A1AD5
:100E6000E0FEA200E43333333354F84528FDEE4D61
:100E7000F074032F120A1A120A82FF12184FEFF0B1
:100E8000900073E004F0B20422120EE1504D1219EA
:100E9000005005E4900085F0120A7F603A12195064
:100EA0007D207C037F017E001217B3120B2090007F
:100EB00003E0FD900074E05480FF900000E0C45413
:100EC000F04FFFED4F900003F0900074E0547FF07E
:100ED000900086E04480F0C2908000E4900087F0AB
:100EE00022A2009201AF27AE26121789228B298AEF
:100EF0002A892B8C2C8D2DE4F53D753E80F53BE544
:100F00003BC3952E5010E52D253BF582E4352C1280
:100F10000F9D053B80E9E4F53BE53BC39538505711
:100F2000E53A253DF582E43539F583E0553E701903
:100F3000F53CE53CC39531502DE530253CF582E488
:100F4000352F120F9D053C80E9E4F53CE53CC39547
:100F5000345013E533253CF582E435321209A412EE
:100F60000FCC053C80E6E53EC313F53E7005053D1C
:100F7000753E80053B80A2E4F53BE53BC3953750C9
:100F800013E536253BF582E435351209A4120FCC62
:100F9000053B80E6C2909000877405F022F583E45B
:100FA00093FF5408FE131313541F24FF9202AB291E
:100FB000AA2AA92BEF540775F002A4F58285F083C5
:100FC00012081FF54085F03F1200032212081FF59A
:100FD0004085F03F120003228E268F278C288D2912
:100FE0008B2AD200C201852982852883E05488D3C8
:100FF0009400748094804003D38001C39201E4F58F
:101000002BE52BC3952A505930010D120A22C41327
:101010001313540124FF8002A200920285278285C7
:101020002683C083C082120A22FFC45407D082D014
:101030008312106A30010C120A22FF131313541F7B
:10104000138002A2009202852782852683C083C076
:1010500082120A225407D082D08312106A052B8094
:10106000A0C2909000877405F02275F00212092545
:10107000E0F53FA3E0F540120003920022C0E0C07B
:10108000F0C083C082C0D075D000C000C001C002D3
:10109000C003C004C005C006C007E5985403F54569
:1010A000F45298E54530E0171219849000DD1217CC
:1010B0007EEFF09000DDE004F0E064407001F0E5C8
:1010C0004530E1329000E0E0D39400748094804099
:1010D0001A9000DCE02446F8E6FF1219819000DC4B
:1010E000E004F09000E0E014F08002D2059000DC13
:1010F000E064207001F0D007D006D005D004D00302
:10110000D002D001D000D0D0D082D083D0F0D0E0B7
:1011100032120022787FE4F6D8FD7581A502115BBA
:10112000020076E493A3F8E493A34003F68001F26F
:1011300008DFF48029E493A3F85407240CC8C333D0
:10114000C4540F4420C8834004F456800146F6DF9F
:10115000E4800B010204081020408090129FE47E7E
:10116000019360BCA3FF543F30E509541FFEE49394
:10117000A360010ECF54C025E060A840B8E493A35B
:10118000FAE493A3F8E493A3C8C582C8CAC583CA86
:10119000F0A3C8C582C8CAC583CADFE9DEE780BE3E
:1011A000C0E0C0F0C083C082C0D075D000C000C015
:1011B00001C002C003C004C005C006C007E5D85482
:1011C00087F521F452D8E5F730E508E5F730E60376
:1011D00012005A53F7DFE52130E708E5D930E00384
:1011E00012002AE52130E008E5DA30E0031216B3F8
:1011F000E52130E108E5DB30E00312198AE5213012
:10120000E208E5DC30E00312198BD007D006D005E8
:10121000D004D003D002D001D000D0D0D082D0836F
:10122000D0F0D0E032AE07E4F52612182C90000082
:10123000E004FF121833121298900000E0FFE52638
:10124000C39F5014121770E0547FFF121833121707
:101250007012176A052680E1900074E0547FFF1237
:10126000183390007412176A121298E4F526900051
:1012700073E0FFE526C39F50177403252612175EFF
:101280000526E526541F70E612197E12197780DEB6
:101290007F5512183302197E12197E1219772242D5
:1012A00000E500004200E100004200E700004200CB
:1012B000E30000C183410086004100870041008AAD
:1012C0000041007900420001000042008800004215
:1012D00000770000C1044100730041008500410017
:1012E0007A004100000048007D000000000000007E
:1012F00000410076004100DD004100DF004100DBDD
:10130000004100DC004100E0004100DA00C105417D
:1013100000DE0041009900008E298F2A8B2B8A2C39
:10132000892DE4F52E900000E0FFE52EC39F505E6E
:10133000AE29E52A7803CEC313CE13D8F9FDAC0647
:10134000AE29E52A7802CEC313CE13D8F92DFFEECD
:101350003CAB07FA120A71E0FEA3E0FFC39BEE9AD2
:1013600050028004AE02AF03AA06AB07120A71E076
:10137000FCA3E0FDAF2AAE29121871500DAB2BAAC9
:101380002CA92DE52E120790D322052E8097C3227B
:101390008F268C278D28EF1209E5AA06F97BFFEF2F
:1013A000120A4CFDEF120A8AF52EEF120B431209B6
:1013B000EF8E2FF530EF120A99F531EF120B4E1226
:1013C00009EF8E32F533EF120AA8F534EFC454F06A
:1013D0002468F582E4341C1209EF8E35F536EFC42B
:1013E00054F0246AF582E4341CF583E493F537EF76
:1013F000120AB7F53885273985283A020EED900094
:1014000076E0FDC4540F2401FBE433FAED540FF9E8
:10141000FD6B7001EA603BED7010E0C4540F2401D5
:10142000FDE433FCED64044C6028900076E0C45485
:101430000FFD540F120B2CEEF0A3EFF0ED04C4548B
:10144000F049900076F0E0FFC4120AD94004EF544E
:101450000FF022C0E0C083C082C0D075D000C004AD
:10146000C005C006C00753C87F9000E5E0FEA3E0BA
:10147000FF4E700353C8FB9000E11216A85009906C
:1014800000E5E4F0A3F0800DC39000E6E09DF0904D
:1014900000E5E09CF0D007D006D005D004D0D0D035
:1014A00082D083D0E032C0E0C083C082C0D075D08B
:1014B00000C004C005C006C00753917F9000E7E05C
:1014C000FEA3E0FF4E70035391FB9000E31216A8B9
:1014D00050099000E7E4F0A3F0800DC39000E8E02D
:1014E0009DF09000E7E09CF0D007D006D005D00436
:1014F000D0D0D082D083D0E03212081FFDACF0AF44
:101500002BAE2A8F828E83AF05AE041218F4AB0780
:10151000AA06D3EB94F4EA940140067E017FF4809E
:1015200004AE02AF03AA06AB07C3EB9464EA9400CF
:1015300050067E007F648004AE02AF03AA06AB07AC
:10154000AF82AE83021871AE07E4FDF52612182CA7
:10155000900001E0FF12183390000112176A90000A
:1015600077E0FF12183390007712176A900088E036
:10157000FF12183390008812176AEDC39403748029
:101580009480500974032D12175E0D80ED7F551263
:10159000183302197EAE05AD07E4FCFB7FAA1218D2
:1015A00033AF05121833EEC454F02453F582E434FB
:1015B0001EF583E493FFECC39F500774082CFC0BCB
:1015C00080F4EB04FF12182EE4FCECC39B5009746A
:1015D000032C12175E0C80F27F5512183302197E0D
:1015E000AD07AC06ABDA900076E0FEC4540FFFEE18
:1015F000540FFEB50702C32253DAFE900076E0FADC
:10160000EE120B2CE0FFA3E08D828C83CFF0A3EFD2
:10161000F0EA54F0FF900076E0044FF0120AD9404F
:1016200004E054F0F08BDAD3228F26900079E0F5B5
:10163000277E007F407D007B007A00796612095783
:101640007F0B12198743DA011200707D0A7C007F3C
:10165000017E001217DC121947E4900087F0900019
:1016600086F0900099E526F0900079F0AF2722AB44
:1016700007AA06E4F9F87F407E427D0FFC1208932A
:10168000A804A905AA06AB077F207ED77D757C013B
:10169000120893C3E49FFFE49EFE22AB07AA06E470
:1016A000F9F87FE87E03FD22E0FCA3E0FDC3EF9D97
:1016B000EE9C22AFFBAEFC7C007D0A1207A2AD07B8
:1016C000AC06AFD953D9BFE4F5FAF5F98FD9C3EC1D
:1016D000948050157F002093027F01EFC433333391
:1016E00054804CFEEDFF0213FEE4900076F0229051
:1016F00000EDE0FCA3E0FDEC547FFEAF0522EC54CE
:1017000080C4131313540124FF22A3E493FE740135
:101710009322E49000EBF0A3F022900086E0548046
:1017200022900087E024FB229000DDE0FF9000DBA8
:10173000E0B507057E017F00229000DB12177EE0F6
:10174000FD7C009000DBE004F0E064407001F0906C
:1017500000DAE0FEEE4204E4F0AE04AF0522F582CA
:10176000E43400F583E0FF021833A3E0FF021833EE
:10177000E52625E0248BF582E43400F58322E0247D
:101780009AF582E43400F58322AD07AC069000742C
:10179000E0FAA3E0FBEA5480C4131313540170056C
:1017A000300102C322AF05AE04EA547FFCAD031240
:1017B0001503228E378F388C398D3A12169B1216EC
:1017C0007C1218D09000E5E539F0A3E53AF09000DE
:1017D000E1E537F0A3E538F043C804228E288F29CD
:1017E0008C2A8D2B12169B12167C1218DC9000E7A7
:1017F000E52AF0A3E52BF09000E3E528F0A3E52926
:10180000F04391042212002112195712195E121985
:101810001612002612189312193412192012192ABE
:101820001218E812196512197302196C7FAA12189E
:1018300033AF06C2059000DFE064207001F0900035
:10184000DFE02446F8A607E004F0A3E004F0227EDF
:101850001DE4FDEDC39408748094805013EF548010
:101860006007EF25E06EFF8004EF25E0FF0D80E3C9
:1018700022C3ED9BF582EC9AF583C3E5829FE58355
:101880009E500EED2BFDEC3AFCC3EF9DEE9C5001FB
:1018900022C322AF885388AF758CA0758DCBEF54CF
:1018A00040FEEF54104E4288221218C3D20390001B
:1018B00079E0FF021629C3EF942CEE94014002D385
:1018C00022C322AE0712182C7F5512183302197E3C
:1018D000AD07AC06ECF5CBAF058FCA22AD07AC0661
:1018E000ECF593AF058F9222C2DE75D90575F9FF2D
:1018F00075960122EF7802CEC313CE13D8F9FF22DA
:10190000E5C854046404C36001D322E5915404641F
:1019100004C36001D32275E34075E10175E2012241
:10192000E59154045391FB429122758E547589229E
:1019300043885022E5C8540453C8FB42C822539838
:101940004FEB4F4DF59822E5915404640460F82262
:1019500053C8FB53C87F2275A41175D4CF2275A537
:101960004175D5772253F77F75DA302275E6907589
:10197000A8B022439810223005FD22C2DE22D2995F
:10198000228F9922AF99228F8C222222015E041A83
:101990002A62080208010900019004B00BB81C5229
:1019A0000A030801090001C20384286E0208000925
:1019B0000108014A02762A4E020800090108028A3B
:1019C0001E82071C0F8C080108020803016802D060
:1019D00012C005DC0A0308010900024E05DC01AE55
:1019E000348A0A0308010900012C0A00008C047ED5
:1019F00027F6080108030802080208030804010486
:101A00000A9A051428A00801080008020802080024
:101A100008030172043819820208010800090294BF
:101A200007D00FA0232808030801080208010618A0
:101A300002D000D208010A0109020A0101D603FC02
:101A40000BFE020801080009019002D0132E010AC2
:101A500000090108023007760F32227403080108DA
:101A6000020827101388076C03E802A802C60801C1
:101A70000A030C05198C0319920219940219960293
:101A80000000001819980419A00219A20219A40252
:101A90000000001819A60319AC0219AE0219B00211
:101AA0000000001819B20319B80219BA0219BC02D1
:101AB0000000000C19BE0419C60219C80219CA0296
:101AC0000000002819CC0419D40219D60219D80232
:101AD0000000002819DA0419E20219E40219E602EA
:101AE0000000001819E80519F20219F40419F804A5
:101AF00019FC022019FE041A06021A08041A0C0422
:101B00001A1002201A12031A18021A1A021A1C02B8
:101B1000000000111A1E041A26021A28021A2A02AC
:101B20001A2C02241A2E031A34021A36021A380208
:101B30001A3A02281A3C031A42021A44021A4602AE
:101B4000000000141A48031A4E021A50021A5202D8
:101B5000000000271A54041A5C021A5E021A60027E
:101B6000000000241A62061A6E021A70021A72022B
:101B700000000030015E041A2A6208020801090010
:101B8000019004B00BB81C520A030801090001C2FD
:101B90000384286E020800090108014A02762A4ED1
:101BA000020800090108028A1E82071C0F8C080126
:101BB00008020803016802D012C005DC0A0308010C
:101BC0000900024E05DC01AE348A0A03080109004F
:101BD000012C0A00008C047E27F608010803080285
:101BE00008020803080401040A9A051428A0080141
:101BF000080008020802080008030172043819826C
:101C0000020801080009029407D00FA02328080346
:101C1000080108020801061802D000D208010A01D2
:101C200009020A0101D603FC0BFE020801080009A3
:101C3000019002D0132E010A000901080230077634
:101C40000F32227403080108020827101388076C5A
:101C500003E802A802C608010A030C051B74031B53
:101C60007A021B7C021B7E02000000181B80041BF2
:101C700088021B8A021B8C02000000181B8E031BAB
:101C800094021B96021B9802000000181B9A031B6B
:101C9000A0021BA2021BA4020000000C1BA6041B36
:101CA000AE021BB0021BB202000000281BB4041BD2
:101CB000BC021BBE021BC002000000281BC2041B8A
:101CC000CA021BCC021BCE02000000181BD0051B51
:101CD000DA021BDC041BE0041BE402201BE6041BED
:101CE000EE021BF0041BF4041BF802201BFA031C79
:101CF00000021C02021C0402000000111C06041C4D
:101D00000E021C10021C12021C1402241C16031CBE
:101D10001C021C1E021C20021C2202281C24031C64
:101D20002A021C2C021C2E02000000141C30031C72
:101D300036021C38021C3A02000000271C3C041C1E
:101D400044021C46021C4802000000241C4A061CD7
:101D500056021C58021C5A0200000030015E041A90
:101D60002A62080208010900019004B00BB81C5255
:101D70000A030801090001C20384286E0208000951
:101D80000108014A02762A4E020800090108028A67
:101D90001E82071C0F8C080108020803016802D08C
:101DA00012C005DC0A0308010900024E05DC01AE81
:101DB000348A0A0308010900012C0A00008C047E01
:101DC00027F60801080308020802080308040104B2
:101DD0000A9A051428A00801080008020802080051
:101DE00008030172043819820208010800090294EC
:101DF00007D00FA0232808030801080208010618CD
:101E000002D000D208010A0109020A0101D603FC2E
:101E10000BFE020801080009019002D0132E010AEE
:101E200000090108023007760F3222740308010806
:101E3000020827101388076C03E802A802C60801ED
:101E40000A030C051D5C031D62021D64021D66026F
:101E5000000000181D68041D70021D72021D74022E
:101E6000000000181D76031D7C021D7E021D8002ED
:101E7000000000181D82031D88021D8A021D8C02AD
:101E80000000000C1D8E041D96021D98021D9A0272
:101E9000000000281D9C041DA4021DA6021DA8020E
:101EA000000000281DAA041DB2021DB4021DB602C6
:101EB000000000181DB8051DC2021DC4041DC80481
:101EC0001DCC02201DCE041DD6021DD8041DDC042D
:101ED0001DE002201DE2031DE8021DEA021DEC02C6
:101EE000000000111DEE041DF6021DF8021DFA028D
:101EF0001DFC02241DFE031E04021E06021E080213
:101F00001E0A02281E0C031E12021E14021E1602B6
:101F1000000000141E18031E1E021E20021E2202B4
:101F2000000000271E24041E2C021E2E021E30025A
:101F3000000000241E32061E3E021E40021E420207
:041F4000000000306D
:00000001FF
