:020000040000FA
:1000000002114DA2029290A2029280AD40AC3F7FBD
:100010000A7E0012002E1219B6A202B3227597A50D
:100020002222220210B9E4F5A922220214938E4161
:100030008F428C438D441216AD121957E54424BFEC
:100040009000E9F0E54334FF9000E8F09000E4E52B
:1000500041F0A3E542F043910422220211DC12197F
:10006000EA53D87853DAFE1219BFE4900088F022E0
:10007000D2DE220214E6121880C290C296C280E438
:10008000FBFD7F101219AD12055874A4F0D2AF1207
:10009000178DD2969000EDE004F070069000ECE031
:1000A00004F09000ECE0B427E9A3E0B410E4C296B9
:1000B00012001D3003091217A38E228F23800675AC
:1000C0002201752300E5237004E522640170469047
:1000D00000DFE0700612178E0202A79000ECE475B4
:1000E000F001120845FED3E5F09410EE942740028B
:1000F000D296D39000EDE094309000ECE0947550EF
:10010000030202A7E4F0A3F09000DFF090009AF061
:10011000C2960202A712178D9000DFE014602A1425
:10012000700302026B1470030202271470030202B0
:100130003E240460030202A7E52364AA60030202CE
:10014000A79000DF04F00202A7E52390009AF09048
:1001500000DF7402F0E52312096D0210A00182A1F4
:10016000018EA501ACA601C0A701C9A801E0A902A2
:1001700004AC01CFB001D8B101A0C002A7FF0000BC
:10018000021B120545E490008BF07FA180651205EB
:10019000759000EB7408F0E4F5257524090202A7B8
:1001A000120575E4F5257524020202A790008B74F0
:1001B00001F07FA612166790007A74A6F00202A7DB
:1001C00012055874A4F00202A79000EB7408F09096
:1001D00000DF7403F00202A77FB11205890202A7B3
:1001E00012054590008BE09000EAF090008B7401BE
:1001F000F07FA91205897D307C757F017E00121881
:10020000570202A71205AEE4F5257524010202A7E4
:1002100012059290007AEFF0E48005E490009AF0E5
:100220009000DFF00202A7E4F525E523F524D3E5ED
:1002300024940074809480402A1205AE806974036F
:100240002525F582E43400F583E523F00525E52531
:10025000B52402800EC3E5259470748094804047D5
:100260007524709000DF7402F0803CE523645570C3
:10027000369000DFF0C20390009AE02460601B24F7
:10028000FC601224FE600E14600B24F760101460F2
:1002900004241070127FA012193ED203800990002E
:1002A00004E0049000EBF090009AE012096D02D394
:1002B000A10346A40388A50346A60470A802D3A9F7
:1002C0000456AC04A5B0050EB10432C0046BFF00A7
:1002D0000000B0121795603F7DC87C001205669043
:1002E000009AE02457600E2408701F1205927FA325
:1002F00012153980159000EAE090008BF090007A9A
:10030000E0FF1216677FAB1205A3E4900087F0436D
:10031000DA01D2030200B012197A50207DE87C0382
:1003200012056690009AE02457600C2408600302CE
:1003300000B07FA20205007FAA02050012059B40C3
:10034000030200B0802C121795601F90009AE024E1
:100350005A600F240260030205187FA412153902A7
:1003600005187FA61205A302051812059B4003027B
:1003700000B012176AC006C0071217799200D007A2
:10038000D006120BA90200B09000DFE0600302006B
:10039000B012179C7003020422240560030200B00F
:1003A00012057F900005E0FFA3E090008CCFF0A342
:1003B000EFF0900007E0FFA3E090008ECFF0A3EFF6
:1003C000F0900003E0FFA3E0900090CFF0A3EFF0E7
:1003D0007B017A00798C901AE6E493FC740193FD1A
:1003E000901AE8E493F52E1217858E2FF530901AA7
:1003F000EBE493F5311217858E32F533901AEEE463
:1004000093F5341217858E35F536901AF1E493F58D
:1004100037A3E493F538753900753A09120F2902AC
:1004200000B09000EBE06003020506C2807FA002EE
:1004300005009000DFE060030200B0900003E0FCE4
:10044000A3E0FD7F017E00121857D2961219B6C2A2
:10045000967FA00205009000DFE060030200B090EC
:100460000003E0FF900073F00205007F0402050026
:100470009000DFE060030200B012179C60192405B1
:1004800060030200B012057F900003E0FF7C007D56
:10049000041213D00200B09000EBE07006C2807F1F
:1004A000A0805D80619000DFE060030200B0121761
:1004B0009C6043240560030200B09000EBE014F060
:1004C00012005E7E007F05C006C007900003E0FBBF
:1004D00025E0FFE433FE74052FF58274003EAD8203
:1004E000FCEB25E0FFE52424FEC39FFBD007D006EC
:1004F0001210140200B09000EBE0700AC2807FA0DE
:100500001219240200B0E4900088F00200B0121723
:100510009560107FB11212DEE4900087F043DA019B
:100520000200B07E007FEE12161E40030200B012E1
:10053000176AC006C0071217799200D007D00612BA
:100540000D780200B07D327C007F017E00121857CA
:10055000D2961219B6C29622E490008BF07FA412B4
:10056000166790007A227F017E00121857D29612E9
:1005700019B6C2962212005E9000DF7404F0229039
:1005800000EBE014F012005E2212166790007AEF82
:10059000F02290007AE0FF121667227E007FEE12B2
:1005A000161E22900087E0547FFD1215D322120000
:1005B0005E9000DF7404F0228F29E4F536EF25E029
:1005C00025E02468F8E6701EEF25E025E02469F8B0
:1005D00076087E007F707D007B017A007903120926
:1005E00093E490007BF0AB2CAA2DA92EC001120938
:1005F000D92466F9E7540F120B2C1209F8D0011216
:1006000007BE503D1209D92466F9E7540FFF120BBB
:100610002C120B02300101B34031EF700A900078C8
:10062000E52AF0A3E52BF01209D9120B382401FFBB
:10063000EFFEEC54F04EFEEDFF1209D9120B0C80C8
:100640000A1209D92466F874F056F6AB2CAA2DA923
:100650002EC0011209D9120B44120A43120B501278
:1006600009F8D0011207BE50521209D9120B4412D8
:100670000A43FF120B505408FE120B04300101B361
:100680004043EF700A900089E52AF0A3E52BF012B1
:1006900009D9120A342401FFE433FEEFC4F8540FE1
:1006A000C868FFEEC454F048FEED540FFDEC4EFE5A
:1006B000ED4FFF1209D9120B0C800A1209D92467D9
:1006C000F8740F56F61209D9120B38FB700F120A84
:1006D0003C700A1209BF2469F8E4F6C3221209D952
:1006E0002468F8E53514667003753601C3E5319565
:1006F000366B7020D2901209D92466F874F056F641
:10070000740F08561209D82468F8061209D924690A
:10071000F816804B1209D9120A34FFC3E534953616
:100720006F703CD2901209D92466F8EC54F0FEEDBB
:10073000540FA606081209D82468F8061209D9240D
:1007400069F8161209D9120A4AE0FF1209D9246978
:10075000F8E6FEF87401088002C333D8FC4FF012AB
:1007600009D92469F8E670171209D9120A4A120A3F
:10077000BEFF1218CAEFF01209D92469F8760812E0
:1007800009D92468F8E6C39535403112196F500530
:10079000E4900086F0120ABB60181219BF7D207C1D
:1007A000037F017E0012182E120B5CA3E529F04492
:1007B00080F01209BF2469F8E4F6D322C32212089C
:1007C0005BFDACF0AF2BAE2A12158722BB01068968
:1007D000828A83F0225002F722BBFE01F322EF8DC2
:1007E000F0A4A8F0CF8CF0A428CE8DF0A42EFE2289
:1007F000BC000BBE0029EF8DF084FFADF022E4CCED
:10080000F875F008EF2FFFEE33FEEC33FCEE9DECB5
:10081000984005FCEE9DFE0FD5F0E9E4CEFD22EDFB
:10082000F8F5F0EE8420D21CFEADF075F008EF2F45
:10083000FFED33FD4007985006D5F0F222C398FD36
:100840000FD5F0EA22C5F0F8A3E028F0C5F0F8E5EE
:1008500082158270021583E038F022BB0110E58218
:1008600029F582E5833AF583E0F5F0A3E02250090B
:10087000E92582F886F008E622BBFE0AE92582F81F
:10088000E2F5F008E222E5832AF583E993F5F0A387
:10089000E9932275F008758200EF2FFFEE33FECD4D
:1008A00033CDCC33CCC58233C5829BED9AEC99E530
:1008B0008298400CF582EE9BFEED9AFDEC99FC0FC0
:1008C000D5F0D6E4CEFBE4CDFAE4CCF9A88222B888
:1008D00000C1B90059BA002DEC8BF084CFCECDFC0D
:1008E000E5F0CBF97818EF2FFFEE33FEED33FDEC9A
:1008F00033FCEB33FB10D703994004EB99FB0FD883
:10090000E5E4F9FA227818EF2FFFEE33FEED33FD20
:10091000EC33FCC933C910D7059BE99A4007EC9B1F
:10092000FCE99AF90FD8E0E4C9FAE4CCFB2275F0AF
:1009300010EF2FFFEE33FEED33FDCC33CCC833C8C0
:1009400010D7079BEC9AE899400AED9BFDEC9AFCC6
:10095000E899F80FD5F0DAE4CDFBE4CCFAE4C8F975
:1009600022A42582F582E5F03583F58322D083D059
:1009700082F8E4937012740193700DA3A393F8743A
:100980000193F5828883E4737402936860EFA3A3F4
:10099000A380DFEF4E6012EF60010EEDBB010B890B
:1009A000828A83F0A3DFFCDEFA2289F05007F70980
:1009B000DFFCA9F022BBFEFCF309DFFCA9F022C298
:1009C00090E52925E025E02466F8E4F608F6E52917
:1009D00025E025E02468F8E4F6E52925E025E02275
:1009E000F583E493FF5408FE131313541F24FF925E
:1009F00002AB29AA2AA92BEF540775F002A4F582AD
:100A000085F0832225E025E02466F8E4F608F6E583
:100A10002825E025E02468F8E4F6E52825E025E02F
:100A200022C454F024CBF582E4341CF583E493FE15
:100A3000740193222466F8E6FC08E6FDECC4F85441
:100A4000F0C8EDC4540F48540F222468F8E614137C
:100A50001313541F2403F582E43400F58322E5299F
:100A6000252BF582E43528F583E022A200E433C487
:100A700033333354804526FFE527900075CFF0A32C
:100A8000EFF0E490007CF022C454F024CEF582E430
:100A9000341CF583E493FC74019322E6FC08E6FD24
:100AA000ECC4540F2401FFEFC454F0FE22E52E25C0
:100AB000E0248CF582E43400F58322900086E0FF88
:100AC00090007BE06F22C454F024D0F582E4341C03
:100AD000F583E49322C454F024D3F582E4341CF566
:100AE00083E49322C454F024D6F582E4341CF583C5
:100AF000E49322C454F024DAF582E4341CF583E450
:100B000093225408131313541F24FF222466F8A6BB
:100B10000608A60722540FC3940474809480229080
:100B20000074E0FFC3947074809480222530F582B5
:100B3000E4352FF583E493222466F8E6FC08E6FD0D
:100B4000EC540F222466F9E7C4F854F0C809E722F0
:100B50002533F582E43532F583E4932290007BE07F
:100B6000900086F053DAFE2225E0247EF582E434FC
:100B700000F58322A200920185262A85272B22C414
:100B800054F024D1F582E4341C22C454F024D4F56A
:100B900082E4341C22C3E5289410748094802224BB
:100BA00066F8E6FEEEC4540F228E268F27E4F52861
:100BB000C3E5279464E52694005019E4F528120B48
:100BC00095500EE528120A042469F8E4F6052880F9
:100BD000EDC2902290008BE0147003020C99046027
:100BE00003020D777866E6C4540FF97065D3E527E4
:100BF0009494E52694115003020D77300003020D02
:100C000077E9120AA4E6540FFC08E6FDEC4E18F64C
:100C1000ED08F618120A9BEC540F4E18F6ED08F684
:100C2000900001E526F0A3E527F0AE26FF7C007DCD
:100C30001F1207F090008CEEF0A3EFF07C007D0314
:100C40001207DEA3EEF0A3EFF0A3E526F0A3E5275D
:100C5000F0227866E6C4540F64026003020D771236
:100C60000B74752C01752D00752E8C901CD193FE84
:100C70007401938E2FF530901CD3E493F531A312B9
:100C80000A2D8E32F533901CD6E493F534901CDA9D
:100C9000E493F535E4FF0205B8E4F528120B95401E
:100CA00003020D77120A1A120B9FFFE528120AC6DB
:100CB000F9EFC399506EE528120A88F5828C832FCC
:100CC000F582E43583F583E493FF120B02300001D3
:100CD000B35003020D72E528C454F024CBF582E42E
:100CE000341C120A92F5828C83EF540775F00212BD
:100CF0000961120A94FDAF27AE26121587E5285028
:100D00001925E025E02466F8120A9BEC540F4EFEEC
:100D1000EDFF120A1A120B0C8058120A042469F80B
:100D2000E4F6804E120A1A120B9F697045120B747A
:100D3000E528120A21AA06752CFF8A2DF52EE52832
:100D4000120B7F120A2B8E2FF530E528120AD5F5EB
:100D500031E528120B8A120A2B8E32F533E5281260
:100D60000AE4F534E528120AF3F535AF281205B880
:100D700040050528020C9C228E268F27C3E5279468
:100D800064E52694005003020F17900088E024FECB
:100D90006025147003020E1E24036003020F1CC2A0
:100DA00090AF27AE261219314003020F1C120A6BB6
:100DB0009000887402F022120F1D503190007CE0E8
:100DC000120B184021D290E4900000F0900074F0D3
:100DD000C20490007DF090007BF0900003F0900042
:100DE000887403F08025E4900088F0801E900075E0
:100DF000E0547FFEA3E0FFD3E5279FE5269E400554
:100E0000120A6B800690007CE004F090007CE0C346
:100E100094E0748094805003020F1C020F1790001E
:100E20007DE004F090007CE0FFA3E0D39F4003024C
:100E30000EC57B007A007928AF27AE2612135840E2
:100E400026900000E09407748094804003020F17FE
:100E5000900000E0FF120AAFE526F0A3E527F08F2F
:100E600028900000E004F0300424120B1F4003021D
:100E70000F17A200E433C43333335480FEE528C493
:100E800054F04EFE74032F120A56EEF08034120B0B
:100E90001F4003020F1774032F120A56E0FEA20030
:100EA000E43333333354F84528FDEE4DF074032F0B
:100EB000120A56120ABEFF1218CAEFF0900074E030
:100EC00004F0B20422120F1D504D12196F5005E4A8
:100ED000900086F0120ABB603A1219BF7D207C0395
:100EE0007F017E0012182E120B5C900003E0FD9033
:100EF0000075E05480FF900000E0C454F04FFFED17
:100F00004F900003F0900075E0547FF0900087E070
:100F10004480F0C2908000E4900088F022A2009209
:100F200001AF27AE26121804228B298A2A892B8C1E
:100F30002C8D2DE4F53D753E80F53BE53BC3952EAC
:100F40005010E52D253BF582E4352C120FD9053BD9
:100F500080E9E4F53BE53BC395385057E53A253D3C
:100F6000F582E43539F583E0553E7019F53CE53CF2
:100F7000C39531502DE530253CF582E4352F120F15
:100F8000D9053C80E9E4F53CE53CC395345013E5D4
:100F900033253CF582E435321209E0121008053C95
:100FA00080E6E53EC313F53E7005053D753E8005C0
:100FB0003B80A2E4F53BE53BC395375013E536256E
:100FC0003BF582E435351209E0121008053B80E656
:100FD000C2909000887405F022F583E493FF5408D2
:100FE000FE131313541F24FF9202AB29AA2AA92B24
:100FF000EF540775F002A4F58285F08312085BF5C3
:101000004085F03F1200032212085BF54085F03F57
:10101000120003228E268F278C288D298B2AD2003E
:10102000C201852982852883E05488D39400748086
:1010300094804003D38001C39201E4F52BE52BC3D8
:10104000952A505930010D120A5EC413131354012E
:1010500024FF8002A2009202852782852683C08316
:10106000C082120A5EFFC45407D082D0831210A639
:1010700030010C120A5EFF131313541F138002A2D7
:10108000009202852782852683C083C082120A5E71
:101090005407D082D0831210A6052B80A0C2909056
:1010A00000887405F02275F002120961E0F53FA393
:1010B000E0F540120003920022C0E0C0F0C083C0FF
:1010C00082C0D075D000C000C001C002C003C004FF
:1010D000C005C006C007E5985403F545F45298E5ED
:1010E0004530E0171219F39000DE1217F9EFF09077
:1010F00000DEE004F0E064407001F0E54530E132EC
:101100009000E1E0D3940074809480401A9000DD58
:10111000E02446F8E6FF1219F09000DDE004F090BC
:1011200000E1E014F08002D2059000DDE064207060
:1011300001F0D007D006D005D004D003D002D001F2
:10114000D000D0D0D082D083D0F0D0E032120022B4
:10115000787FE4F6D8FD7581A5021197020076E448
:1011600093A3F8E493A34003F68001F208DFF48030
:1011700029E493A3F85407240CC8C333C4540F4480
:1011800020C8834004F456800146F6DFE4800B015A
:1011900002040810204080901261E47E019360BC3C
:1011A000A3FF543F30E509541FFEE493A360010EF2
:1011B000CF54C025E060A840B8E493A3FAE493A319
:1011C000F8E493A3C8C582C8CAC583CAF0A3C8C53A
:1011D00082C8CAC583CADFE9DEE780BEC0E0C0F0CE
:1011E000C083C082C0D075D000C000C001C002C0A2
:1011F00003C004C005C006C007E5D85487F521F434
:1012000052D8E5F730E508E5F730E60312005A5307
:10121000F7DFE52130E708E5D930E00312002AE5E1
:101220002130E008E5DA30E00312172EE52130E145
:1012300008E5DB30E0031219F9E52130E208E5DCCE
:1012400030E0031219FAD007D006D005D004D0033D
:10125000D002D001D000D0D0D082D083D0F0D0E066
:10126000324200E600004200E200004200E80000D6
:101270004200E40000C18341008700410088004132
:10128000008B0041007A004200010000420089000A
:10129000004200780000C104410074004100860053
:1012A00041007B004100000048007E00000000007B
:1012B00000000041007700410073004100DE004162
:1012C00000E0004100DC004100DD004100E10041A0
:1012D00000DB00C1054100DF0041009A0000AE07BD
:1012E000E4F5261218A7900000E004FF1218AE12D1
:1012F0001351900000E0FFE526C39F50141217EB36
:10130000E0547FFF1218AE1217EB1217E505268086
:10131000E1900075E0547FFF1218AE90007512172F
:10132000E5121351E4F526900074E0FFE526C39F13
:101330005017740325261217D90526E526541F7069
:10134000E61219ED1219E680DE7F551218AE021969
:10135000ED1219ED1219E6228E298F2A8B2B8A2C79
:10136000892DE4F52E900000E0FFE52EC39F505E2E
:10137000AE29E52A7803CEC313CE13D8F9FDAC0607
:10138000AE29E52A7802CEC313CE13D8F92DFFEE8D
:101390003CAB07FA120AADE0FEA3E0FFC39BEE9A56
:1013A00050028004AE02AF03AA06AB07120AADE0FA
:1013B000FCA3E0FDAF2AAE291218EC500DAB2BAA0E
:1013C0002CA92DE52E1207CCD322052E8097C322FF
:1013D0008F268C278D28EF120A21AA06F97BFFEFB2
:1013E000120A88FDEF120AC6F52EEF120B7F120AC1
:1013F0002B8E2FF530EF120AD5F531EF120B8A1232
:101400000A2B8E32F533EF120AE4F534EFC454F0B0
:1014100024D7F582E4341C120A2B8E35F536EFC43E
:1014200054F024D9F582E4341CF583E493F537EFC6
:10143000120AF3F53885273985283A020F299000DA
:1014400077E0FDC4540F2401FBE433FAED540FF9A7
:10145000FD6B7001EA603BED7010E0C4540F240195
:10146000FDE433FCED64044C6028900077E0C45444
:101470000FFD540F120B68EEF0A3EFF0ED04C4540F
:10148000F049900077F0E0FFC4120B154004EF54D0
:101490000FF022C0E0C083C082C0D075D000C0046D
:1014A000C005C006C00753C87F9000E6E0FEA3E079
:1014B000FF4E700353C8FB9000E21216E6500990ED
:1014C00000E6E4F0A3F0800DC39000E7E09DF0900B
:1014D00000E6E09CF0D007D006D005D004D0D0D0F4
:1014E00082D083D0E032C0E0C083C082C0D075D04B
:1014F00000C004C005C006C00753917F9000E8E01B
:10150000FEA3E0FF4E70035391FB9000E41216E639
:1015100050099000E8E4F0A3F0800DC39000E9E0EA
:101520009DF09000E8E09CF0D007D006D005D004F4
:10153000D0D0D082D083D0E032AE07E4FDF52612C1
:1015400018A7900001E0FF1218AE9000011217E5F5
:10155000900078E0FF1218AE9000781217E5900026
:1015600089E0FF1218AE9000891217E5EDC39403CD
:1015700074809480500974032D1217D90D80ED7F6B
:10158000551218AE0219ED8E378F388C398D3AAF5F
:101590003AAE391216F1AB07AA06D3EB94F4EA94EB
:1015A0000140067E017FF48004AE02AF03AA06ABC1
:1015B00007C3EB9464EA940050067E007F648004C5
:1015C000AE02AF03AA06AB07AD3AAC39AF38AE37BF
:1015D0000218ECAE05AD07E4FCFB7FAA1218AEAF13
:1015E000051218AEEEC454F024C2F582E4341EF5A0
:1015F00083E493FFECC39F500774082CFC0B80F42A
:10160000EB04FF1218A9E4FCECC39B500974032CF3
:101610001217D90C80F27F551218AE0219EDAD07E2
:10162000AC06ABDA900077E0FEC4540FFFEE540F27
:10163000FEB50702C32253DAFE900077E0FAEE12FD
:101640000B68E0FFA3E08D828C83CFF0A3EFF0EA7C
:1016500054F0FF900077E0044FF0120B154004E0C7
:1016600054F0F08BDAD3228F2690007AE0F5277EB3
:10167000007F407D007B007A0079661209937F0B22
:101680001219F643DA011200707D0A7C007F017E98
:10169000001218571219B6E4900088F0900087F0F5
:1016A00090009AE526F090007AF0AF2722AB07AAC7
:1016B00006E4F9F87F407E427D0FFC1208CFA804B3
:1016C000A905AA06AB077F207ED77D757C0112088D
:1016D000CFC3E49FFFE49EFE22AB07AA06E4F9F81D
:1016E0007FE87E03FD22E0FCA3E0FDC3EF9DEE9CBE
:1016F00022AD07AC06900073E0D394007480948010
:10170000401EECC4F854F0C868FAEDC4540F48FB0E
:10171000ED7802CEC313CE13D8F92BFFEE3AFE229A
:10172000AE04ED7802CEC313CE13D8F9FF22AFFB7F
:10173000AEFC7C007D0A1207DEAD07AC06AFD953C4
:10174000D9BFE4F5FAF5F98FD9C3EC948050157F31
:10175000002093027F01EFC433333354804CFEEDFD
:10176000FF02143EE4900077F0229000EEE0FCA32C
:10177000E0FDEC547FFEAF0522EC5480C41313133C
:10178000540124FF22A3E493FE74019322E4900009
:10179000ECF0A3F022900087E0548022900088E0D3
:1017A00024FB229000DEE0FF9000DCE0B507057E20
:1017B000017F00229000DC1217F9E0FD7C00900010
:1017C000DCE004F0E064407001F09000DBE0FEEE4D
:1017D0004204E4F0AE04AF0522F582E43400F58360
:1017E000E0FF0218AEA3E0FF0218AEE52625E024D4
:1017F0008CF582E43400F58322E0249BF582E43406
:1018000000F58322AD07AC06900075E0FAA3E0FB7B
:10181000EA5480C413131354017005300102C3222B
:10182000AF05AE04EA547FFCAD03121587228E3754
:101830008F388C398D3A1216D91216BA12194B906C
:1018400000E6E539F0A3E53AF09000E2E537F0A3D1
:10185000E538F043C804228E288F298C2A8D2B125C
:1018600016D91216BA1219579000E8E52AF0A3E526
:101870002BF09000E4E528F0A3E529F04391042241
:101880001200211219C61219CD1219851200261242
:10189000190E1219A312198F12199912196312191C
:1018A000D41219E20219DB7FAA1218AEAF06C205E4
:1018B0009000E0E064207001F09000E0E02446F841
:1018C000A607E004F0A3E004F0227E1DE4FDEDC3D2
:1018D0009408748094805013EF54806007EF25E0E3
:1018E0006EFF8004EF25E0FF0D80E322C3ED9BF542
:1018F00082EC9AF583C3E5829FE5839E500EED2B23
:10190000FDEC3AFCC3EF9DEE9C500122C322AF8850
:101910005388AF758CA0758DCBEF5440FEEF5410FB
:101920004E42882212193ED20390007AE0FF02163E
:1019300067C3EF942CEE94014002D322C322AE077A
:101940001218A77F551218AE0219EDAD07AC06ECC0
:10195000F5CBAF058FCA22AD07AC06ECF593AF050A
:101960008F9222C2DE75D90575F9FF75960122E5C1
:10197000C854046404C36001D322E5915404640490
:10198000C36001D32275E34075E10175E20122E5F0
:101990009154045391FB429122758E5475892243D0
:1019A000885022E5C8540453C8FB42C82253984FBC
:1019B000EB4F4DF59822E5915404640460F82253EE
:1019C000C8FB53C87F2275A41175D4CF2275A541D9
:1019D00075D5772253F77F75DA302275E69075A8B2
:1019E000B022439810223005FD22C2DE22D2992275
:1019F0008F9922AF99228F8C222222015E041A2A0B
:101A000062080208010900019004B00BB81C520AD8
:101A1000030801090001C20384286E0208000901BD
:101A200008014A02762A4E020800090108028A1EAD
:101A300082071C0F8C080108020803016802D012FB
:101A4000C005DC0A0308010900024E05DC01AE34C2
:101A50008A0A0308010900012C0A00008C047E2771
:101A6000F608010803080208020803080401040A32
:101A70009A051428A00801080008020802080008B6
:101A80000301720438198202080108000902940750
:101A9000D00FA02328080308010802080106180235
:101AA000D000D208010A0109020A0101D603FC0B89
:101AB000FE020801080009019002D0132E010A005D
:101AC000090108023007760F322274030801080268
:101AD0000827101388076C03E802A802C608010A49
:101AE000030C0519FB031A01021A03021A0502006E
:101AF0000000181A07041A0F021A11021A13020022
:101B00000000181A15031A1B021A1D021A1F0200E0
:101B10000000181A21031A27021A29021A2B0200A0
:101B200000000C1A2D041A35021A37021A39020065
:101B30000000281A3B041A43021A45021A47020001
:101B40000000281A49041A51021A53021A550200B9
:101B50000000181A57051A61021A63041A67041A5A
:101B60006B02201A6D041A75021A77041A7B041A84
:101B70007F02201A81031A87021A89021A8B020037
:101B80000000111A8D041A95021A97021A99021A66
:101B90009B02241A9D031AA3021AA5021AA7021A6D
:101BA000A902281AAB031AB1021AB3021AB502002D
:101BB0000000141AB7031ABD021ABF021AC10200AC
:101BC0000000271AC3041ACB021ACD021ACF020052
:101BD0000000241AD1061ADD021ADF021AE10200FF
:101BE000000030015E041A2A62080208010900019F
:101BF0009004B00BB81C520A030801090001C2038B
:101C000084286E020800090108014A02762A4E0261
:101C10000800090108028A1E82071C0F8C080108AF
:101C2000020803016802D012C005DC0A030801099A
:101C300000024E05DC01AE348A0A030801090001E6
:101C40002C0A00008C047E27F6080108030802080D
:101C5000020803080401040A9A051428A0080108D0
:101C60000008020802080008030172043819820201
:101C70000801080009029407D00FA02328080308D0
:101C80000108020801061802D000D208010A010961
:101C9000020A0101D603FC0BFE020801080009013B
:101CA0009002D0132E010A00090108023007760FB6
:101CB00032227403080108020827101388076C03F6
:101CC000E802A802C608010A030C051BE3031BE98E
:101CD000021BEB021BED02000000181BEF041BF7B8
:101CE000021BF9021BFB02000000181BFD031C0372
:101CF000021C05021C0702000000181C09031C0F2F
:101D0000021C11021C13020000000C1C15041C1DF7
:101D1000021C1F021C2102000000281C23041C2B93
:101D2000021C2D021C2F02000000281C31041C394B
:101D3000021C3B021C3D02000000181C3F051C4910
:101D4000021C4B041C4F041C5302201C55041C5D38
:101D5000021C5F041C63041C6702201C69031C6FC7
:101D6000021C71021C7302000000111C75041C7D12
:101D7000021C7F021C81021C8302241C85031C8B15
:101D8000021C8D021C8F021C9102281C93031C99BB
:101D9000021C9B021C9D02000000141C9F031CA53A
:101DA000021CA7021CA902000000271CAB041CB3E4
:101DB000021CB5021CB702000000241CB9061CC599
:101DC000021CC7021CC90200000030015E041A2A6E
:101DD00062080208010900019004B00BB81C520A05
:101DE000030801090001C20384286E0208000901EA
:101DF00008014A02762A4E020800090108028A1EDA
:101E000082071C0F8C080108020803016802D01227
:101E1000C005DC0A0308010900024E05DC01AE34EE
:101E20008A0A0308010900012C0A00008C047E279D
:101E3000F608010803080208020803080401040A5E
:101E40009A051428A00801080008020802080008E2
:101E5000030172043819820208010800090294077C
:101E6000D00FA02328080308010802080106180261
:101E7000D000D208010A0109020A0101D603FC0BB5
:101E8000FE020801080009019002D0132E010A0089
:101E9000090108023007760F322274030801080294
:101EA0000827101388076C03E802A802C608010A75
:101EB000030C051DCB031DD1021DD3021DD502004D
:101EC0000000181DD7041DDF021DE1021DE3020002
:101ED0000000181DE5031DEB021DED021DEF0200C1
:101EE0000000181DF1031DF7021DF9021DFB020081
:101EF00000000C1DFD041E05021E07021E09020043
:101F00000000281E0B041E13021E15021E170200DD
:101F10000000281E19041E21021E23021E25020095
:101F20000000181E27051E31021E33041E37041E32
:101F30003B02201E3D041E45021E47041E4B041E8C
:101F40004F02201E51031E57021E59021E5B020043
:101F50000000111E5D041E65021E67021E69021E3E
:101F60006B02241E6D031E73021E75021E77021E75
:101F70007902281E7B031E81021E83021E85020039
:101F80000000141E87031E8D021E8F021E91020088
:101F90000000271E93041E9B021E9D021E9F02002E
:101FA0000000241EA1061EAD021EAF021EB10200DB
:031FB000000030FE
:00000001FF
